{
  "contractName": "PokerHandUtils",
  "abi": [
    {
      "constant": true,
      "inputs": [
        {
          "name": "cards",
          "type": "int8[5]"
        }
      ],
      "name": "evaluateHand",
      "outputs": [
        {
          "name": "",
          "type": "uint8"
        },
        {
          "name": "",
          "type": "int8[5]"
        }
      ],
      "payable": false,
      "stateMutability": "pure",
      "type": "function"
    },
    {
      "constant": true,
      "inputs": [
        {
          "name": "code",
          "type": "int8"
        }
      ],
      "name": "getCardName",
      "outputs": [
        {
          "name": "",
          "type": "uint8"
        },
        {
          "name": "",
          "type": "uint8"
        }
      ],
      "payable": false,
      "stateMutability": "pure",
      "type": "function"
    },
    {
      "constant": true,
      "inputs": [
        {
          "name": "value",
          "type": "uint8"
        },
        {
          "name": "suit",
          "type": "uint8"
        }
      ],
      "name": "getCardCode",
      "outputs": [
        {
          "name": "",
          "type": "int8"
        }
      ],
      "payable": false,
      "stateMutability": "pure",
      "type": "function"
    },
    {
      "constant": true,
      "inputs": [
        {
          "name": "data",
          "type": "int8[5]"
        }
      ],
      "name": "sortHand",
      "outputs": [],
      "payable": false,
      "stateMutability": "pure",
      "type": "function"
    },
    {
      "constant": true,
      "inputs": [
        {
          "name": "cardVal",
          "type": "uint8"
        }
      ],
      "name": "getCardOrderValue",
      "outputs": [
        {
          "name": "",
          "type": "int8"
        }
      ],
      "payable": false,
      "stateMutability": "pure",
      "type": "function"
    }
  ],
  "bytecode": "0x6060604052341561000f57600080fd5b61137c8061001e6000396000f30060606040526004361061006d576000357c0100000000000000000000000000000000000000000000000000000000900463ffffffff1680630e6e5300146100725780633897ff5d1461010957806359a514b114610166578063c99ca172146101b2578063f4928115146101f8575b600080fd5b341561007d57600080fd5b6100b66004808060a001906005806020026040519081016040528092919082600560200280828437820191505050505091905050610238565b604051808360098111156100c657fe5b60ff16815260200182600560200280838360005b838110156100f55780820151818401526020810190506100da565b505050509050019250505060405180910390f35b341561011457600080fd5b61012d600480803560000b906020019091905050611006565b6040518083600d81111561013d57fe5b60ff16815260200182600381111561015157fe5b60ff1681526020019250505060405180910390f35b341561017157600080fd5b610196600480803560ff1690602001909190803560ff16906020019091905050611070565b604051808260000b60000b815260200191505060405180910390f35b34156101bd57600080fd5b6101f66004808060a001906005806020026040519081016040528092919082600560200280828437820191505050505091905050611096565b005b341561020357600080fd5b61021c600480803560ff16906020019091905050611253565b604051808260000b60000b815260200191505060405180910390f35b6000610242611292565b61024a611292565b610252611292565b60008061025d6112bc565b6102656112e7565b6000806000610272611313565b600060a0604051908101604052807fffffffffffffffffffffffffffffffffffffffffffffffffffffffffffffffff60000b81526020017fffffffffffffffffffffffffffffffffffffffffffffffffffffffffffffffff60000b81526020017fffffffffffffffffffffffffffffffffffffffffffffffffffffffffffffffff60000b81526020017fffffffffffffffffffffffffffffffffffffffffffffffffffffffffffffffff60000b81526020017fffffffffffffffffffffffffffffffffffffffffffffffffffffffffffffffff60000b8152509a5060099750608060405190810160405280600060ff168152602001600060ff168152602001600060ff168152602001600060ff1681525096506101a060405190810160405280600060ff168152602001600060ff168152602001600060ff168152602001600060ff168152602001600060ff168152602001600060ff168152602001600060ff168152602001600060ff168152602001600060ff168152602001600060ff168152602001600060ff168152602001600060ff168152602001600060ff1681525095506000945060408051908101604052807fffffffffffffffffffffffffffffffffffffffffffffffffffffffffffffffff60000b81526020017fffffffffffffffffffffffffffffffffffffffffffffffffffffffffffffffff60000b8152509150600098505b60058960ff161015610866576104a48e8a60ff1660058110151561049a57fe5b6020020151611006565b809450819550505083600d8111156104b857fe5b9450858560ff16600d811015156104cb57fe5b60200201805180919060010160ff1660ff16815250506104ea84611253565b8a8a60ff166005811015156104fb57fe5b602002019060000b908160000b815250506004868660ff16600d8110151561051f57fe5b602002015160ff1614801561054a57506002600981111561053c57fe5b88600981111561054857fe5b115b15610581576002975061055c84611253565b8b600060058110151561056b57fe5b602002019060000b908160000b815250506106b0565b6003868660ff16600d8110151561059457fe5b602002015160ff161480156105bf5750600660098111156105b157fe5b8860098111156105bd57fe5b115b156105f657600697506105d184611253565b8b60006005811015156105e057fe5b602002019060000b908160000b815250506106af565b6002868660ff16600d8110151561060957fe5b602002015160ff1614156106ae577fffffffffffffffffffffffffffffffffffffffffffffffffffffffffffffffff82600060028110151561064757fe5b602002015160000b14156106835761065e84611253565b82600060028110151561066d57fe5b602002019060000b908160000b815250506106ad565b61068c84611253565b82600160028110151561069b57fe5b602002019060000b908160000b815250505b5b5b5b868360038111156106bd57fe5b60ff166004811015156106cc57fe5b60200201805180919060010160ff1660ff16815250506005878460038111156106f157fe5b60ff1660048110151561070057fe5b602002015160ff161415610859576107178a611096565b60048a600460058110151561072857fe5b60200201518b600060058110151561073c57fe5b60200201510360000b141561078357600d8a600060058110151561075c57fe5b602002015160000b14156107735760009750610778565b600197505b878a9c509c50610ff6565b600d8a600060058110151561079457fe5b602002015160000b1480156107bf575060048a60016005811015156107b557fe5b602002015160000b145b80156107f6575060038a60046005811015156107d757fe5b60200201518b60016005811015156107eb57fe5b60200201510360000b145b1561084a576001975060a060405190810160405280600460000b60000b8152602001600360000b8152602001600260000b8152602001600160000b81526020016000800b8152509a50878b9c509c50610ff6565b60049750878a9c509c50610ff6565b888060010199505061047a565b6002600981111561087357fe5b88600981111561087f57fe5b141561092057600098505b60058960ff16101561091b578a60006005811015156108a557fe5b602002015160000b8a8a60ff166005811015156108be57fe5b602002015160000b14151561090e57898960ff166005811015156108de57fe5b60200201518b60016005811015156108f257fe5b602002019060000b908160000b81525050878b9c509c50610ff6565b888060010199505061088a565b610b6c565b6006600981111561092d57fe5b88600981111561093957fe5b1415610b6b577fffffffffffffffffffffffffffffffffffffffffffffffffffffffffffffffff82600160028110151561096f57fe5b602002015160000b1315610a2e57600397508a600060058110151561099057fe5b602002015160000b8260006002811015156109a757fe5b602002015160000b14156109ee578160016002811015156109c457fe5b60200201518b60016005811015156109d857fe5b602002019060000b908160000b81525050610a23565b8160006002811015156109fd57fe5b60200201518b6001600581101515610a1157fe5b602002019060000b908160000b815250505b878b9c509c50610ff6565b600098505b60058960ff161015610b60578a6000600581101515610a4e57fe5b602002015160000b8a8a60ff16600581101515610a6757fe5b602002015160000b141515610b53578a6001600581101515610a8557fe5b602002015160000b8a8a60ff16600581101515610a9e57fe5b602002015160000b1315610b1b578a6001600581101515610abb57fe5b60200201518b6002600581101515610acf57fe5b602002019060000b908160000b81525050898960ff16600581101515610af157fe5b60200201518b6001600581101515610b0557fe5b602002019060000b908160000b81525050610b52565b898960ff16600581101515610b2c57fe5b60200201518b6002600581101515610b4057fe5b602002019060000b908160000b815250505b5b8880600101995050610a33565b878b9c509c50610ff6565b5b60066009811115610b7957fe5b886009811115610b8557fe5b1115610fef577fffffffffffffffffffffffffffffffffffffffffffffffffffffffffffffffff826000600281101515610bbb57fe5b602002015160000b1415610ceb57610bd28a611096565b60048a6004600581101515610be357fe5b60200201518b6000600581101515610bf757fe5b60200201510360000b1415610c155760059750878a9c509c50610ff6565b600d8a6000600581101515610c2657fe5b602002015160000b148015610c51575060048a6001600581101515610c4757fe5b602002015160000b145b8015610c88575060038a6004600581101515610c6957fe5b60200201518b6001600581101515610c7d57fe5b60200201510360000b145b15610cdc576005975060a060405190810160405280600460000b60000b8152602001600360000b8152602001600260000b8152602001600160000b81526020016000800b8152509a50878b9c509c50610ff6565b60099750878a9c509c50610ff6565b7fffffffffffffffffffffffffffffffffffffffffffffffffffffffffffffffff826001600281101515610d1b57fe5b602002015160000b141515610f095760079750816001600281101515610d3d57fe5b602002015160000b826000600281101515610d5457fe5b602002015160000b1315610dcf57816000600281101515610d7157fe5b60200201518b6000600581101515610d8557fe5b602002019060000b908160000b81525050816001600281101515610da557fe5b60200201518b6001600581101515610db957fe5b602002019060000b908160000b81525050610e38565b816001600281101515610dde57fe5b60200201518b6000600581101515610df257fe5b602002019060000b908160000b81525050816000600281101515610e1257fe5b60200201518b6001600581101515610e2657fe5b602002019060000b908160000b815250505b600098505b60058960ff161015610efe57816000600281101515610e5857fe5b602002015160000b8a8a60ff16600581101515610e7157fe5b602002015160000b14158015610eb55750816001600281101515610e9157fe5b602002015160000b8a8a60ff16600581101515610eaa57fe5b602002015160000b14155b15610ef157898960ff16600581101515610ecb57fe5b60200201518b6002600581101515610edf57fe5b602002019060000b908160000b815250505b8880600101995050610e3d565b878b9c509c50610ff6565b610f128a611096565b60089750816000600281101515610f2557fe5b60200201518b6000600581101515610f3957fe5b602002019060000b908160000b8152505060019050600098505b60058960ff161015610fe457816000600281101515610f6e57fe5b602002015160000b8a8a60ff16600581101515610f8757fe5b602002015160000b141515610fd757898960ff16600581101515610fa757fe5b60200201518b8260ff16600581101515610fbd57fe5b602002019060000b908160000b8152505080806001019150505b8880600101995050610f53565b878b9c509c50610ff6565b878b9c509c505b5050505050505050505050915091565b60008060008360000b12158015611020575060348360000b125b151561102b57600080fd5b600d8360000b81151561103a57fe5b0760000b600d81111561104957fe5b600d8460000b81151561105857fe5b0560000b600381111561106757fe5b91509150915091565b600082600d81111561107e57fe5b600d83600381111561108c57fe5b0201905092915050565b60006110a061133c565b600080600060059450846040518059106110b75750595b90808252806020026020018201604052509350600092505b8483101561111b5785836005811015156110e557fe5b602002015184848151811015156110f857fe5b9060200190602002019060000b908160000b8152505082806001019350506110cf565b600192505b83518310156111fa57838381518110151561113757fe5b9060200190602002015191508290505b60008111801561117657508160000b846001830381518110151561116757fe5b9060200190602002015160000b125b156111c857836001820381518110151561118c57fe5b9060200190602002015184828151811015156111a457fe5b9060200190602002019060000b908160000b81525050808060019003915050611147565b8184828151811015156111d757fe5b9060200190602002019060000b908160000b815250508280600101935050611120565b600092505b8483101561124b57838381518110151561121557fe5b90602001906020020151868460058110151561122d57fe5b602002019060000b908160000b8152505082806001019350506111ff565b505050505050565b60008082600d81111561126257fe5b60000b141561127e57600d8081111561127757fe5b905061128d565b81600d81111561128a57fe5b90505b919050565b60a0604051908101604052806005905b6000800b8152602001906001900390816112a25790505090565b6080604051908101604052806004905b600060ff168152602001906001900390816112cc5790505090565b6101a060405190810160405280600d905b600060ff168152602001906001900390816112f85790505090565b60408051908101604052806002905b6000800b8152602001906001900390816113225790505090565b6020604051908101604052806000815250905600a165627a7a7230582074c64e10bc8d27b2481796fb8c966d022ddab3448982fabb606cba98a53637900029",
  "source": "// PokerHandUtils \r\n// \r\n// \r\n// Library for handling of poker hands consisting of cards numbered 0-51\r\n// Ace = 0, King = 12 in the suits Clubs, Diamonds, Hearts, Spades\r\n//\r\n// Function: \tevaluateHand takes a list of 5 cards (0-51)\r\n// Returns:  \tenum of Hand type and up to 5 values of the cards sorted to break ties\r\n//\r\n// Notes: \t\tState of the art poker hand evals use data tables and hash to run fast.\r\n//\t\t\t\tFor in contract, wanted an old school analytic approach with low memory\r\n//\r\n// Next Steps: \tTest and Optimize.  Potentially change tiebreaker list to a hash number to compare.\r\n//\r\n// Usage: \r\n//\r\n// int8[5] memory hand = [ int8(PokerHandUtils.CardId.Six_Clubs), int8(PokerHandUtils.CardId.Three_Clubs), int8(PokerHandUtils.CardId.Jack_Diamonds), int8(PokerHandUtils.CardId.Two_Clubs), int8(PokerHandUtils.CardId.Seven_Clubs)];\r\n// PokerHandUtils.HandEnum handVal;\r\n// int8[5] memory result;\r\n// (handVal, result) = poker.evaluateHand(hand);\r\n// Example returns (HandEnum.HighCard, [Jack, Eight, Six, Three, Two])\r\n//\r\n\r\npragma solidity ^0.4.18;\r\n\r\n// Should be library but contract so I can run truffle tests\r\n// library PokerHandUtils {\r\ncontract PokerHandUtils {\r\n\t// Enum for all Cards, 0-51\r\n\tenum CardId { \r\n\t\tAce_Clubs, Two_Clubs, Three_Clubs, Four_Clubs, Five_Clubs, Six_Clubs, Seven_Clubs, Eight_Clubs, Nine_Clubs, Ten_Clubs, Jack_Clubs, Queen_Clubs, King_Clubs,\r\n\t\tAce_Diamonds, Two_Diamonds, Three_Diamonds, Four_Diamonds, Five_Diamonds, Six_Diamonds, Seven_Diamonds, Eight_Diamonds, Nine_Diamonds, Ten_Diamonds, Jack_Diamonds, Queen_Diamonds, King_Diamonds,\r\n\t\tAce_Hearts, Two_Hearts, Three_Hearts, Four_Hearts, Five_Hearts, Six_Hearts, Seven_Hearts, Eight_Hearts, Nine_Hearts, Ten_Hearts, Jack_Hearts, Queen_Hearts, King_Hearts,\r\n\t\tAce_Spades, Two_Spades, Three_Spades, Four_Spades, Five_Spades, Six_Spades, Seven_Spades, Eight_Spades, Nine_Spades, Ten_Spades, Jack_Spades, Queen_Spades, King_Spades\r\n\t}\r\n\t// Values of Cards\r\n\tenum CardValue { Ace, Two, Three, Four, Five, Six, Seven, Eight, Nine, Ten, Jack, Queen, King, Ace_High }\r\n\t// Suits of Cards\r\n\tenum CardSuit { Clubs, Diamonds, Hearts, Spades }\r\n\t// Type of hand from High card to Royal flush\r\n\tenum HandEnum { RoyalFlush, StraightFlush, FourOfAKind, FullHouse, Flush, Straight, ThreeOfAKind, TwoPair, Pair, HighCard  }\r\n\t\r\n\t// Convert a card to standard card name pair\r\n\tfunction getCardName(int8 code) public pure returns (CardValue, CardSuit) {\r\n\t\trequire(code >= 0 && code <52);\r\n\t\treturn (CardValue(code % 13), CardSuit(code / 13));\r\n\t}\r\n\r\n\t// Convert a card name to card code\r\n\tfunction getCardCode(CardValue value, CardSuit suit) public pure returns (int8) {\r\n\t\treturn int8(suit)*13 + int8(value);\r\n\t}\r\n\t\r\n\t// Helper to get the value for a card 1,12 plus Ace high can be 13.\r\n\t// Used for judging relative strength\r\n\tfunction getCardOrderValue(CardValue cardVal) pure public returns (int8)\r\n\t{\r\n\t\t// Ace values as High Ace in ranking\r\n\t\tif (int8(cardVal) == 0) {\r\n\t\t\treturn int8(CardValue.Ace_High);\r\n\t\t}\r\n\t\treturn int8(cardVal);\r\n\t}\r\n\r\n\t// Helper Sort function\r\n\t// Modified from\r\n\t// https://github.com/alice-si/array-booster\r\n\tfunction sortHand(int8[5] data) pure public {\r\n\t\tuint n = data.length;\r\n\t\tint8[] memory arr = new int8[](n);\r\n\t\tuint i;\r\n\r\n\t\tfor(i=0; i<n; i++) {\r\n\t\t\tarr[i] = data[i];\r\n\t\t}\r\n\r\n\t\tint8 key;\r\n\t\tuint j;\r\n\r\n\t\tfor(i = 1; i < arr.length; i++ ) {\r\n\t\t\tkey = arr[i];\r\n\r\n\t\t\tfor(j = i; j > 0 && arr[j-1] < key; j-- ) {\r\n\t\t\tarr[j] = arr[j-1];\r\n\t\t\t}\r\n\r\n\t\t\tarr[j] = key;\r\n\t\t}\r\n\r\n\t\tfor(i=0; i<n; i++) {\r\n\t\t\tdata[i] = arr[i];\r\n\t\t}\r\n\t}\r\n\t\r\n\t// Hand evaluator - returns the type of hand and card values for a 5 card hand in order\r\n\t// Will return the cards ranked by value order where -1 is something we don't care about\r\n\t// E.G. Four of a kind will return HandEnum=FourOfAKind and ranks will be [FourOfAKind_Value, Extra card value, -1,-1,-1]\r\n\tfunction evaluateHand(int8[5] cards) pure public returns (HandEnum, int8[5])\r\n\t{\r\n\t\t// order of card values to return for evaluating\r\n\t\tint8[5] memory retOrder= [-1, -1, -1, -1, -1];\r\n\t\tint8[5] memory sortCards;\t// List of card values with Ace = 13\r\n\t\tuint8 i;\r\n\t    HandEnum handVal = HandEnum.HighCard;\t// Assume high card\r\n\t\tuint8[4] memory suits = [0, 0, 0, 0];   // Count suits to check for a flush\r\n\t\tuint8[13] memory val_match = [0, 0, 0, 0, 0, 0, 0, 0, 0, 0, 0, 0, 0];      // Array of values to check for pairs, ToaK, FoaK\r\n\t\tuint8 testValue = 0;\r\n\t\tCardValue cardValue;\r\n\t\tCardSuit cardSuit;\r\n\t\tint8[2] memory pairs = [-1, -1];\t// Value of two pairs\r\n\t\t// Initial pass through cards\r\n\t\tfor (i = 0; i < 5; i++)\r\n\t\t{\r\n\t\t\t(cardValue, cardSuit) = getCardName(cards[i]);\r\n\t\t\ttestValue = uint8(cardValue);\r\n\t\t\tval_match[testValue]++;            //  Update val_match for card values\r\n\t\t\tsortCards[i] = getCardOrderValue(cardValue);\r\n\t\t\t// Test for 4 of a kind\r\n\t\t\tif (val_match[testValue] == 4 && handVal > HandEnum.FourOfAKind)\r\n\t\t\t{\r\n\t\t\t\thandVal = HandEnum.FourOfAKind;\r\n\t\t\t\tretOrder[0] = getCardOrderValue(cardValue);\r\n\t\t\t}\r\n\t\t\telse if (val_match[testValue] == 3 && handVal > HandEnum.ThreeOfAKind)\r\n\t\t\t{\r\n\t\t\t\thandVal = HandEnum.ThreeOfAKind;\r\n\t\t\t\tretOrder[0] = getCardOrderValue(cardValue);\r\n\t\t\t}\r\n\t\t\telse if (val_match[testValue] == 2)\r\n\t\t\t{\r\n\t\t\t\t// Handle pairs by storing off for later\r\n\t\t\t\tif (pairs[0] == -1)\r\n\t\t\t\t\tpairs[0] = getCardOrderValue(cardValue);\r\n\t\t\t\telse\r\n\t\t\t\t\tpairs[1] = getCardOrderValue(cardValue);\r\n\t\t\t}\r\n\t\t\tsuits[uint8(cardSuit)]++;    //  increment suits\r\n\t\t\t// Handle flush situations\r\n\t\t\tif (suits[uint8(cardSuit)] == 5) {\r\n\t\t\t\t// flush of all five cards so we are going to return in here\r\n\t\t\t\tsortHand(sortCards);           //  Sort the cards\r\n\t\t\t\tif (sortCards[0] - sortCards[4] == 4)\r\n\t\t\t\t{        \r\n\t\t\t\t\tif (sortCards[0] == 13) {\r\n\t\t\t\t\t\t//  Its a royal flush\r\n\t\t\t\t\t\thandVal = HandEnum.RoyalFlush;\r\n\t\t\t\t\t} else {\r\n\t\t\t\t\t\thandVal = HandEnum.StraightFlush;\r\n\t\t\t\t\t}\r\n\t\t\t        return (handVal, sortCards);\r\n\t\t\t\t}\r\n\t\t\t\telse if (sortCards[0] == 13 && sortCards[1] == 4 &&\r\n\t\t\t\t\tsortCards[1] - sortCards[4] == 3) \t\t\t// Ace low straight flush\r\n\t\t\t\t{\r\n\t\t\t\t\thandVal = HandEnum.StraightFlush;\r\n\t\t\t\t\tretOrder = [int8(4), 3, 2, 1, 0];  // Ace Low straight\r\n\t\t\t        return (handVal, retOrder);\r\n\t\t\t\t}\r\n\t\t\t\telse\r\n\t\t\t\t{\r\n\t\t\t\t\t// it is a flush\r\n\t\t\t\t\thandVal = HandEnum.Flush;\r\n\t\t\t        return (handVal, sortCards);\r\n\t\t\t\t}\r\n\r\n\t\t\t}\r\n\t\t}\r\n\t\t// Check 4oaK and 3oaK\r\n\t\tif (handVal == HandEnum.FourOfAKind) {\r\n\t\t\tfor (i = 0; i < 5; i++) {\r\n\t\t\t\t// Find the only kicker\r\n\t\t\t\tif (sortCards[i] != retOrder[0]) {\r\n\t\t\t\t\tretOrder[1] = sortCards[i];\r\n\t\t\t\t\treturn (handVal, retOrder);\r\n\t\t\t\t}\r\n\t\t\t}\r\n\t\t} else if (handVal == HandEnum.ThreeOfAKind) {\r\n\t\t\t// Check for full house\r\n\t\t\tif (pairs[1] > -1) {\r\n\t\t\t\thandVal = HandEnum.FullHouse;\r\n\t\t\t\tif (pairs[0] == retOrder[0])\r\n\t\t\t\t\tretOrder[1] = pairs[1];\r\n\t\t\t\telse\r\n\t\t\t\t\tretOrder[1] = pairs[0];\r\n\t\t\t\treturn (handVal, retOrder);\r\n\t\t\t}\r\n\t\t\t// 3oaK, so check the last two cards\r\n\t\t\tfor (i = 0; i < 5; i++) {\r\n\t\t\t\t// Find the kickers\r\n\t\t\t\tif (sortCards[i] != retOrder[0]) {\r\n\t\t\t\t\tif (sortCards[i] > retOrder[1]) {\r\n\t\t\t\t\t\tretOrder[2] = retOrder[1];\r\n\t\t\t\t\t\tretOrder[1] = sortCards[i];\r\n\t\t\t\t\t} else {\r\n\t\t\t\t\t\tretOrder[2] = sortCards[i];\r\n\t\t\t\t\t}\r\n\t\t\t\t}\r\n\t\t\t}\r\n\t\t\t// return 3oaK\r\n\t\t\treturn (handVal, retOrder);\t\t\t\r\n\t\t}\r\n\t\t// check for straights via sorted rank list if not 3 of a kind or pairs\r\n\t\tif (handVal > HandEnum.ThreeOfAKind)\r\n\t\t{\r\n\t\t\t// no pair so could be a straight\r\n\t\t\tif (pairs[0] == -1) \r\n\t\t\t{\r\n\t\t\t\tsortHand(sortCards);           //  Sort the cards\r\n\t\t\t\t// Check the straights\r\n\t\t\t\tif (sortCards[0] - sortCards[4] == 4) {\r\n\t\t\t\t\thandVal = HandEnum.Straight;\r\n\t\t\t\t\treturn (handVal, sortCards);\r\n\t\t\t\t}\r\n\t\t\t\telse if (sortCards[0] == 13 && sortCards[1] == 4 &&\r\n\t\t\t\t\tsortCards[1] - sortCards[4] == 3) \t\t\t// Ace low straight\r\n\t\t\t\t{\r\n\t\t\t\t\thandVal = HandEnum.Straight;\r\n\t\t\t\t\tretOrder = [int8(4), 3, 2, 1, 0];   // Ace Low straight\r\n\t\t\t        return (handVal, retOrder);\r\n\t\t\t\t}\r\n\t\t\t\telse // High card only\r\n\t\t\t\t{\r\n\t\t\t\t\thandVal = HandEnum.HighCard;\r\n\t\t\t        return (handVal, sortCards);\r\n\t\t\t\t}\r\n\t\t\t}\r\n\t\t\telse\t// pair or two pair\r\n\t\t\t{\r\n\t\t\t\tif (pairs[1] != -1)\t// two pair\r\n\t\t\t\t{\r\n\t\t\t\t\thandVal = HandEnum.TwoPair;\r\n\t\t\t\t\tif (pairs[0] > pairs[1])\r\n\t\t\t\t\t{\r\n\t\t\t\t\t\tretOrder[0] = pairs[0];\r\n\t\t\t\t\t\tretOrder[1] = pairs[1];\r\n\t\t\t\t\t}\r\n\t\t\t\t\telse\r\n\t\t\t\t\t{\r\n\t\t\t\t\t\tretOrder[0] = pairs[1];\r\n\t\t\t\t\t\tretOrder[1] = pairs[0];\r\n\t\t\t\t\t}\r\n\t\t\t\t\t// find the final kicker\r\n\t\t\t\t\tfor (i = 0; i < 5; i++) {\r\n\t\t\t\t\t\tif (sortCards[i] != pairs[0] && sortCards[i] != pairs[1]) {\r\n\t\t\t\t\t\t\tretOrder[2] = sortCards[i];\r\n\t\t\t\t\t\t}\r\n\t\t\t\t\t}\r\n\t\t\t\t\treturn (handVal, retOrder);\r\n\t\t\t\t}\r\n\t\t\t\telse // just a pair\r\n\t\t\t\t{\r\n\t\t\t\t\tsortHand(sortCards);           //  Sort the cards\r\n\t\t\t\t\thandVal = HandEnum.Pair;\r\n\t\t\t\t\tretOrder[0] = pairs[0];\r\n\t\t\t\t\tuint8 cnt = 1;\r\n\t\t\t\t\tfor (i = 0; i < 5; i++)\r\n\t\t\t\t\t{\r\n\t\t\t\t\t\t// not the pair add to list\r\n\t\t\t\t\t\tif (sortCards[i] != pairs[0]) {\r\n\t\t\t\t\t\t\tretOrder[cnt] = sortCards[i];\r\n\t\t\t\t\t\t\tcnt++;\r\n\t\t\t\t\t\t}\r\n\t\t\t\t\t}\r\n\t\t\t\t\treturn (handVal, retOrder);\r\n\t\t\t\t}\r\n\t\t\t}\r\n\t\t}\r\n        return (handVal, retOrder);\r\n\t}\r\n\r\n}\r\n\r\n",
  "sourcePath": "D:\\dev\\truffle\\PokerHandSolidity\\contracts\\PokerHandUtils.sol",
  "compiler": {
    "name": "solc",
    "version": "0.4.18+commit.9cf6e910.Emscripten.clang"
  },
  "schemaVersion": "1.0.1",
  "updatedAt": "2018-02-08T19:07:01.286Z"
}